:020000040800F2
:1000000070070020CD0100081B210008C51A000858
:1000100019210008D3020008C329000800000000CD
:100020000000000000000000000000001F21000888
:100030000B030008000000001D210008212100081A
:10004000E7010008E7010008E7010008E7010008F0
:10005000E7010008E7010008E7010008E7010008E0
:10006000E7010008E7010008E7010008E7010008D0
:10007000E7010008E7010008D5020008E7010008D1
:10008000E7010008E7010008E7010008E7010008B0
:10009000E7010008E7010008E7010008E7010008A0
:1000A000E7010008E7010008E7010008E701000890
:1000B000E7010008E7010008E7010008E701000880
:1000C000E7010008E7010008E7010008E701000870
:1000D000E7010008C9230008E7010008E70100085C
:1000E000E7010008E7010008E7010008E701000850
:1000F000E7010008E7010008E7010008E701000840
:10010000E7010008E7010008E7010008E70100082F
:10011000E7010008E7010008E7010008E70100081F
:10012000E7010008E7010008E7010008E70100080F
:1001300000F002F800F03AF80AA090E8000C8244BF
:100140008344AAF10107DA4501D100F02FF8AFF29C
:10015000090EBAE80F0013F0010F18BFFB1A43F0A5
:1001600001031847CC2C0000EC2C0000103A24BFEF
:1001700078C878C1FAD8520724BF30C830C144BF0C
:1001800004680C607047000000230024002500264E
:10019000103A28BF78C1FBD8520728BF30C148BFEA
:1001A0000B6070471FB51FBD10B510BD00F058F8AB
:1001B0001146FFF7F7FF02F015FC00F076F803B4E4
:1001C000FFF7F2FF03BC00F07DF80000094880470C
:1001D00009480047FEE7FEE7FEE7FEE7FEE7FEE729
:1001E000FEE7FEE7FEE7FEE704480549054A064B41
:1001F00070470000832100083101000870010020D1
:100200007007002070030020700300204FF00002F0
:1002100000B5134694469646203922BFA0E80C50FC
:10022000A0E80C50B1F12001BFF4F7AF090728BFD7
:10023000A0E80C5048BF0CC05DF804EB890028BF53
:1002400040F8042B08BF704748BF20F8022B11F07C
:10025000804F18BF00F8012B7047704770477047F8
:10026000754600F02BF8AE4605006946534620F06F
:100270000700854618B020B5FFF7B6FFBDE820405F
:100280004FF000064FF000074FF000084FF0000B52
:1002900021F00701AC46ACE8C009ACE8C009ACE805
:1002A000C009ACE8C0098D46704710B50446AFF3ED
:1002B00000802046BDE81040FFF781BF004870472E
:1002C0000C01002001491820ABBEFEE72600020009
:1002D0007047FEE7014800F0D7B80000C8000020D2
:1002E00030B590F840500124AC40C56B6C60046898
:1002F00063604368102B036803D099600068C26094
:1003000030BD9A600068C16030BD704772B6FEE7CC
:1003100010B590F821100022022905D00421816334
:1003200080F82020012010BD01680B6823F00E0327
:100330000B6001680B6823F001030B6090F84030FC
:10034000C46B012101FA03F3636080F8211080F887
:100350002020104610BD00002DE9F05F90F821101C
:100360000024022903D004218163012485E001686F
:100370000A6822F00E020A6001680A6822F001028F
:100380000A603F4E3E4FB215DFF8F4C0DFF8F09040
:10039000DFF8ECA0DFF8E8B0DFF8E4E00168783FD0
:1003A00013011502ACF1640CA9F15009AAF13C0A41
:1003B000ABF1280BAEF1140E4FF48018B14227D9DF
:1003C000B9420ED0614512D049451DD0514518D0D3
:1003D000594518D0714501D1424615E0294EB14228
:1003E00001D1012210E0274E1436B14201D1102272
:1003F0000AE0244E2836B14206D0224A3C329142CD
:1004000001D11A4600E02A461E49091F0A602BE066
:10041000B94213D0614517D0494522D051451DD06E
:1004200059451DD0714501D142461AE0B14202D171
:100430004FF0807215E0134EB14201D1012210E05D
:10044000104E1436B14201D110220AE00D4E28366A
:10045000B14206D00B4A3C32914201D11A4600E02B
:100460002A46074980394A60012180F8211000217D
:1004700080F82010416B01B188472046BDE8F09F0D
:1004800080000240080402402DE9F05FC16B0A6859
:1004900001680B68046C4FF0040808FA04F8844DF6
:1004A000844E854FDFF814C2DFF81492DFF814A2EF
:1004B000DFF814B2DFF814E218EA020F65D05FEA41
:1004C000437862D50A68920603D40A6822F00402CF
:1004D0000A60DFF8F0814FF48062016808F11408C7
:1004E00013011402414524D9A9420DD0B1420FD0C5
:1004F000B9421AD0614515D0494515D0514501D1B1
:10050000120312E0594501D104220EE0714501D1D8
:1005100040220AE06D4D1435A94206D06B4A2832BC
:10052000914201D11A4600E022466749091F0A603C
:1005300029E0A94213D0B14215D0B94220D061457B
:100540001BD049451BD0514502D14FF4800217E022
:10055000414502D14FF0806212E0594501D1042299
:100560000EE0714501D140220AE0584D1435A942F0
:1005700006D0564A2832914201D11A4600E022465E
:100580004B4908394A60C16A71E04FF0020808FA25
:1005900004F818EA020F70D05FEA83786DD50A6814
:1005A000920606D40A6822F00A020A60012180F845
:1005B0002110DFF810814FF40072016808F114086F
:1005C00013011402414524D9A9420DD0B1420FD0E4
:1005D000B9421AD0614515D0494515D0514501D1D0
:1005E000120312E0594501D102220EE0714501D1FA
:1005F00020220AE0354D1435A94206D0334A28326C
:10060000914201D11A4600E022462F49091F0A6093
:1006100029E0A94213D0B14215D0B94220D061459A
:100620001BD049451BD0514502D14FF4001217E0B1
:10063000414502D14FF0007212E0594501D102222A
:100640000EE0714501D120220AE0204D1435A94267
:1006500006D01E4A2832914201D11A4600E02246B5
:10066000134908394A60002180F82010816A002966
:100670001CD0BDE8F05F0847FFE70825A5401542FC
:1006800014D01A0712D50A6822F00E020A6090F8F8
:100690004020C36B012101FA02F25A60816380F8A5
:1006A0002110002180F82010016BE0E7BDE8F09FE9
:1006B000080002401C00024030000240440002409A
:1006C000580002406C000240080402401C04024032
:1006D00030B560B11A4B026814219A4209D2194B05
:1006E0001344B3FBF1F18900016417490AE00120CA
:1006F00030BD134B5B421344B3FBF1F1890001643D
:100700000F490839C163022180F82110136843F6AC
:10071000F0718B43F0E901142143D0E902452C43E9
:1007200021430469214344692143846921431943D6
:10073000116000214163012242770177084630BDF4
:1007400008040240F8FFFDBF0000024070B50446F7
:1007500090F82000002501280CD0012084F820000A
:1007600094F821600020012E06D084F82000022594
:10077000284670BD022070BD022684F82160A06367
:100780002068066826F0010606602046FFF7A8FDEF
:10079000E06A00282068016802D041F00E0106E0FE
:1007A00021F0040101602068016841F00A01016044
:1007B0002068016841F001010160D9E770B5044685
:1007C00000F018F90546601C02D004480078044483
:1007D00000F010F9401BA042FAD370BD00000020C9
:1007E0002DE9F84FDFF8C891002409F1040A0AF155
:1007F000040B23460F270BF1040ED1E00125A54081
:1008000006EA0502AA4276D1DFF8A8C14E68A6EB37
:100810000C0866452BD00DDC032E34D005DC36B336
:10082000012E19D0022E2FD11BE0112E16D0122E20
:100830002AD119E0B8F5881F19D006DCB8F5803F39
:1008400015D0B8F5801F1FD111E0B8F5001F0ED0EC
:10085000B8F5041F18D10AE0CB6815E0CB681B1D62
:1008600012E0CB6808330FE0CB680C330CE08B68E8
:100870002BB1012B4FF0080303D0456104E00423A2
:1008800002E0056100E00023FF2A01D8064601E0EE
:1008900000F104064FEA840501D9A5F12005D6F838
:1008A000008007FA05FC28EA0C0803FA05F548EA77
:1008B0000508C6F800804D68ED0070D53E4DAE6964
:1008C00046F00106AE61AD6924F0030605F00105AE
:1008D00000953A4D06EB050CDCF80850A607360FDC
:1008E00007FA06F825EA0805DFF8D480404503D169
:1008F0004FF0000825E052E0DFF8C880404502D103
:100900004FF001081DE0DFF8C080404502D14FF0F4
:10091000020816E0DFF8B480404502D14FF003082A
:100920000FE0DFF8AC80404502D14FF0040808E04A
:10093000DFF8A080404502D14FF0050801E04FF0FC
:10094000060808FA06F848EA0508CCF808804D6859
:10095000D9F80060ED034D4601D5164300E09643FB
:100960002E604D68DAF80060AD03554601D5164398
:1009700000E096432E604D68DBF80060ED025D46B6
:1009800001D5164300E096432E604D68DEF8006006
:10099000AD02754601D5164300E096432E60641CF7
:1009A0000A681646E2407FF429AFBDE8F88F0000E0
:1009B000000401400000111000100240000001403E
:1009C00000080140000C01400010014000140140EB
:1009D00000180140001C0140C26821EA02030A40DD
:1009E00043EA0241016170470AB10161704709049D
:1009F000FBE700000148806870470000000000200D
:100A0000006C704770B5040025D094F83D000025B7
:100A100020B984F83C50204600F026FB242084F8BE
:100A20003D002068016821F0010101602068016833
:100A300041F4004101602068016821F40041016037
:100A400000F06EFC4D4A6168914201D84C4900E0CB
:100A50004C49884201D2012070BD4B492368B0FB4C
:100A6000F1F15E6826F03F060E435E6063689342D4
:100A700006D94FF4967359434FF47A73B1FBF3F1EF
:100A80002368491C1E6A26F03F06314319626168DB
:100A9000914210D84900401EB0FBF1F2521CC2F343
:100AA0000B02042A01D2042022E0B0FBF1F0401C2A
:100AB000C0F30B001CE0A268F2B301EBC10303EB2F
:100AC0000116431EB3FBF6F35B1C43F480431B0586
:100AD00049D092B301EBC10202EB0111401EB0FB01
:100AE000F1F0401CC0F30B0040F4804040F40040A3
:100AF0002168CA694CF6FF739A431043C861D4E970
:100B0000071001432068026822F0C002114301600F
:100B1000D4E9030101432068826848F2FF339A4315
:100B200011438160D4E9050108432168CA6822F0B5
:100B3000FF021043C86001E00EE016E02068016883
:100B400041F0010101602564202084F83D00256307
:100B500084F83E50002070BD01EB4106431EB3FBFC
:100B6000F6F35B1CB3E70120C2E701EB4101401E35
:100B7000B0FBF1F0401CC0F30B00B7E7A08601000A
:100B800080841E0000093D0040420F002DE9FF4F08
:100B900081B089460446FFF72DFF054694F83D00D5
:100BA0004FF0010820287DD1192301225049204609
:100BB000009501F089F8002874D194F83C000128D0
:100BC00070D0012084F83C0020680168C90703D177
:100BD000016841F0010101602068016821F40061B1
:100BE0000160242084F83D00002626644148E0622C
:100BF0004FF0011B20272068016841F480710160DB
:100C00000095002259462046049B01F05DF850B142
:100C100020680068C00502D54FF4007020640320EE
:100C200005B0BDE8F08F216809F0FE000861FFF70C
:100C3000E1FE2168054648694969C0F34000C1F3F7
:100C400080214FF0A00A0FE0FFF7D4FE411B04986B
:100C5000814200D808B984F83DA0216848694969F3
:100C6000C0F34000C1F3802194F83D20A02A02D0B7
:100C700008B90029E8D084F83D7020684169C9436B
:100C8000890716D4016841F4007101602068416948
:100C900080691923012216492046009501F014F8B5
:100CA000B8B900E021E084F83D7084F83C60002091
:100CB000B6E7016841F40071016021686FF480605B
:100CC0004861192301220A492046009500F0FCFFE3
:100CD00008B10120A4E7039808F1010880458AD3F0
:100CE00084F83D7084F83C60F3E7022098E7000048
:100CF000020010000000FFFF2DE9F84F0025DDF88D
:100D00002890984617468A4604460095FFF772FEDB
:100D1000064694F83D0020287AD119230122834900
:100D20002046009600F0D0FF0028F5D194F83C0052
:100D300001286DD0012084F83C0020680168C907B3
:100D400003D1016841F0010101602068016821F4CC
:100D500000610160222084F83D00102084F83E00EC
:100D600025646762A4F82A80608D20857048E0625F
:100D700033464A465146204600F0BCFE00287DD14D
:100D8000208DDFF8B081202768B1012814D0022817
:100D9000206801681ED041F48061016020684169CB
:100DA00080690090B5E0206841698169009101681F
:100DB00041F400710160ACE02068016821F48061B9
:100DC000016072B62068416981690091016841F44F
:100DD00000710AE041F40061016072B62068416967
:100DE00081690091016821F48061016062B690E040
:100DF000032868D801280CD002284B464FF0000287
:100E00004146204600960FD000F05EFFB0BB10E0D8
:100E10008AE032464946204600F0D5FF70BB206884
:100E20000069616A08706BE000F04EFF30BB72B67B
:100E300034E02068016821F48061016072B62068A6
:100E40000069616A0870606A401C6062208D401E03
:100E50002085608D401E6085374846F2A8110068E5
:100E6000B0FBF1F0C0EBC00000EB80000090401E32
:100E7000009008D020684069C04300E029E04007A6
:100E80000CD50098F3E744F8305F6773A5732069C9
:100E900040F02000206162B625731AE020680168E6
:100EA00041F40071016020680069616A0870606A3D
:100EB000401C6062218D491E2185618D491E61851E
:100EC00062B621681AE032464946204600F07BFFB0
:100ED00010B10120BDE8F88F20680069616A0870D0
:100EE000606A401C6062218D491E2185618D491E0A
:100EF000618521684A69D24352070AD409690170A1
:100F0000606A401C6062208D401E2085608D401EFE
:100F10006085208D00287FF46BAF84F83D7084F8E5
:100F20003E5084F83C50D5E70220D3E70200100081
:100F30000000FFFF040001000C0000202DE9F84F25
:100F40001F4690468A460446DDF82890FFF752FD7A
:100F5000054694F83D0020287FD1192301224049FD
:100F60002046009500F0B0FE002876D194F83C00B1
:100F7000012872D0012084F83C0020680168C9076C
:100F800003D1016841F0010101602068016821F48A
:100F900000610160212084F83D00102084F83E00AB
:100FA00000262664C4F824806785608D20852D483E
:100FB000E0622B464A465146204600F011FE90B9A9
:100FC000206841698069009036E02A4649462046FB
:100FD00000F02CFF50B1206C042804D12068016877
:100FE00041F4007101600120BDE8F88F606A21685A
:100FF00000780861606A401C6062618D491E6185ED
:10100000218D491E89B2218522685369DB435B0724
:101010000BD451B100781061606A401C6062608D31
:10102000401E6085208D401E20852A464946204668
:1010300000F024FE0028CED1208D0028C5D154F820
:101040003D0B016841F400710160202004F81E0985
:10105000E67766770020C7E7FFE70220C4E70000D5
:10106000020010000000FFFF10B586B000210091C3
:1010700001910291039100680F4988421AD10F4CE7
:10108000A06940F00800A061A069694600F008006E
:101090000490C02000901220019003200390084883
:1010A000FFF79EFBE06940F40010E061E06900F4A6
:1010B0000010049006B010BD005400400010024023
:1010C000000C014002488168027811448160704739
:1010D00000000020074810B5016841F010010160D0
:1010E000032000F075F80F2000F006F800F024F857
:1010F000002010BD0020024070B50D4D04464FF495
:101100007A712878B1FBF0F00A490968B1FBF0F078
:1011100000F0ECFA48B9102C07D200222146501EEC
:1011200000F036F800206C6070BD012070BD00003A
:10113000000000200C0000200C4808B5816941F037
:1011400001018161816901F001010091C16941F0F2
:101150008051C161C06900F080500090044841682E
:1011600021F0E06141F00071416008BD00100240D3
:1011700000000140002809DB00F01F02012191401E
:101180004009800000F1E020C0F800117047000025
:10119000F0B40E4B1B680C46C3F30223C3F10705E2
:1011A000042D00D90425191D072901D2002300E0D0
:1011B000DB1E012606FA05F1491E214099409E409A
:1011C000761E16403143F0BC01F0FCBB0CED00E094
:1011D000064900F0070208684FF6FF03184040EA8E
:1011E0000220034A10430860704700000CED00E045
:1011F0000000FA052DE9F0470F46050061D0434E87
:10120000306800F00700B84209D2306820F00700CB
:1012100038433060306800F00700B84251D1286888
:101220003B4C810712D5400703D5606840F4E0606D
:1012300060602878000703D5606840F46050606003
:101240006068A96820F0F000084360602878C00753
:1012500028D06868012810D02168022810D089079A
:1012600000292EDA616821F0030101436160FFF774
:10127000C1FB804641F288390DE021688903EFE720
:101280008901EDE7FFF7B6FBA0EB0801494502D95C
:101290000320BDE8F0876068696800F00C00B0EBDF
:1012A000810FEFD1306800F00700B8420BD93068E9
:1012B00020F0070038433060306800F00700B84283
:1012C00001D00120E5E72878400705D56068E96886
:1012D00020F4E060084360602878000706D5606865
:1012E000296920F4605040EAC100606000F038F8DD
:1012F0006168084AC1F30311515CC840064908609F
:1013000006480068FFF7F8FE0020C2E70020024010
:1013100000100240162E00080C00002004000020DF
:101320000448054900684968044AC1F30221515C38
:10133000C84070470C00002000100240262E000814
:101340000448054900684968044AC1F3C221515C58
:10135000C84070470C00002000100240262E0008F4
:1013600012A185B00FC98DE80F0014A0144A0068BF
:1013700004905168134801F00C03042B10D0082B83
:101380000ED1C1F38343C9031DF803000AD5516888
:1013900004AAC1F34041515C0A4A5043B0FBF1F04A
:1013A00005B0704708494843FAE700000203040506
:1013B000060708090A0B0C0D0E0F101001020000A1
:1013C0000010024000127A0000093D002DE9F84F9C
:1013D000040070D02078C04DC00749D06868C0F3C1
:1013E0008100012807D06868C0F38100022809D174
:1013F0006868C00306D52868800339D5606800286E
:10140000E7D035E06068B0F5803F0BD010B1B0F5A3
:10141000A02F11D0286820F480302860286820F49C
:10142000802002E0286840F480302860606890B135
:10143000FFF7E0FA06460AE0286840F480202860BA
:10144000F0E700BFFFF7D6FA801B642873D828683E
:101450008003F7D50CE0FFF7CDFA064605E000BFA4
:10146000FFF7C8FA801B6428F0D828688003F7D4F7
:1014700020789A4E80074FF001094FF0000839D5C7
:10148000686810F00C0F07D06868C0F3810002286C
:1014900009D16868C00306D42868800714D520697C
:1014A000012808D110E02069B0B1C6F80090FFF71C
:1014B000A1FA074605E00AE1FFF79CFAC01B0228E3
:1014C000C4D828688007F7D52868616920F0F8003B
:1014D00040EAC10028600DE0C6F80080FFF78AFAF4
:1014E000074604E0FFF786FAC01B022823D82868C5
:1014F0008007F7D4207800072CD57948A169D9B1A5
:10150000C0F80090FFF776FA074604E0FFF772FA9A
:10151000C01B02280FD8686A8007F7D571484FF4BE
:10152000FA510068B0FBF1F0009000BF0098411E36
:101530000091FAD20EE080E0C0F80080FFF75AFA7E
:10154000074604E0FFF756FAC01B022875D8686A00
:101550008007F7D42078400760D5E8690027C000ED
:1015600008D4E86940F08050E861E869012700F09C
:10157000805000905C480168C90513D40168834617
:1015800041F480710160FFF735FA824606E000BF42
:10159000FFF730FAA0EB0A0064284ED8DBF8000011
:1015A000C005F5D5E06801280AD008B1052813D098
:1015B000286A20F001002862286A20F0040002E076
:1015C000286A40F001002862E06841F2883B98B147
:1015D000FFF710FA82460BE0286A40F00400286208
:1015E000EEE700BFFFF706FAA0EB0A0159455AD80B
:1015F000286A8007F6D50CE0FFF7FCF9824605E083
:10160000FFF7F8F9A0EB0A0159454CD8286A800782
:10161000F6D41FB1E86920F08050E861E06988B332
:101620006968C1F38101022944D00228C6F86080AC
:1016300004D0FFF7DFF9044638E034E0FFF7DAF9C9
:10164000074604E0FFF7D6F9C01B02282BD828680C
:101650008001F7D4206AB0F5803F05D16868A168A1
:1016600020F4003008436860D4E908010843696841
:1016700021F4741108436860C6F86090FFF7BAF966
:10168000044606E025E000BFFFF7B4F9001B02287E
:1016900009D828688001F7D51BE000BFFFF7AAF939
:1016A000001B022802D90320BDE8F88F28688001BA
:1016B000F4D40EE00128F7D06868226A00F4803183
:1016C000914204D1616A00F47010884201D0012077
:1016D000EAE70020E8E70000001002400000424274
:1016E000800442420C0000200070004010B5401EF3
:1016F000B0F1807F01D3012010BD4FF0E024606184
:101700000F21601701F05EF90020A0610720206121
:10171000002010BD70477047F8B502680446106895
:10172000D168536910F00F0F4FF0000553D003F04C
:10173000010601F4907737435FD0C20705D0CA0590
:1017400003D5226C42F001022264420705D5DA0774
:1017500003D0226C42F002022264820705D5DA0728
:1017600003D0226C42F004022264020707D501F084
:101770002002324303D0226C42F008022264226C21
:10178000002A34D0800604D5880602D5204600F011
:1017900063FD20684069216CC0F38010090700D404
:1017A00030B3204600F037FD2068416949061BD55B
:1017B000416921F040014161A06BA8B158494163E2
:1017C000A06BFEF7C9FD002811D0A06B416B01B0E2
:1017D000BDE8F040084783060FD58B060DD520469F
:1017E000BDE8F84000F038BD2046FFF794FFF8BD93
:1017F0002046FFF790FF2564F8BD266B2023012EBD
:1018000052D1C60650D5CE064ED51068506800900D
:10181000506940062AD5A16B086840680004000C96
:10182000EAD0A68D8642E7D9E0858869202818D0BD
:10183000D06820F48070D0602068416921F00101F7
:1018400041612068416921F04001416184F83E30E6
:1018500025632068C16821F01001C160A06BFEF70C
:1018600057FDA08DE18D401A81B219E0A08DE18D68
:10187000401A81B2E08D0028BED00029BCD0D068CB
:1018800020F49070D0602068426922F00102426129
:1018900084F83E3025632068C26822F01002C260DE
:1018A0002046FFF737FFF8BD05062BD50D0629D5D5
:1018B00094F83D002128F6D1A068B0F5805F01D1F1
:1018C0002069B0B1206A411C21622168007848601B
:1018D000E08C401E0004000CE084E4D12068C16864
:1018E00021F08001C1602068C16841F04001C16001
:1018F000F8BD206A0088C0F308005060206A801C90
:101900002062E5E74006F3D54806F1D5D1682046C8
:1019100021F04001D16084F83D3000F0D1F8F8BDED
:101920008521000870B5040004D094F83D0000251E
:1019300010B106E0012070BD84F83C50204600F054
:1019400023F8242084F83D002068C16821F4005168
:10195000C160204600F0DCFC2068016921F4904160
:1019600001612068416921F02A0141612068C16854
:1019700041F40051C1602564202084F83D0084F8C2
:101980003E00002070BD000070B586B00025064600
:10199000009501950295039500682349884240D13E
:1019A0002249886940F480408861886900F4804059
:1019B0000490886940F00400886188691C4C00F03C
:1019C0000400049048150090022001900320039029
:1019D00069462046FEF704FF2015CDE9000569465B
:1019E00020460295FEF7FCFE134C124820601020A2
:1019F000C4E901058020C4E9030580016561C4E9EB
:101A000006502046FEF764FE08B1FEF77FFC7463C3
:101A10000022114625206662FFF7BAFB2520FFF75A
:101A2000A9FB06B070BD0000003801400010024064
:101A30000008014044000240C80000207047000038
:101A400070B5044690F83D00202830D169B362B3E8
:101A500094F83C0001282AD0012084F83C0021623F
:101A6000A284E28400252564212084F83D00636B74
:101A700010489862636B1048D862636B0F48186314
:101A8000606B134645632668606B321DFEF75EFE91
:101A900021686FF04000086084F83C50206841697C
:101AA00041F080014161002070BD012070BD022025
:101AB00070BD0000DF2100080D22000895210008FC
:101AC00070477047FEE701684A69D24352050FD458
:101AD0006FF480624A61002140F8301F2022427377
:101AE0008173026942F004020261017301207047B0
:101AF000002070472DE9F84F0446C06A1E46934601
:101B00000D4621680A6842F480620A60082807D0FE
:101B1000012805D010F5803F02D0206B112804D198
:101B20002068016841F4807101604FF001195B4643
:101B3000002249462046009600F0C6F84FF400788F
:101B400040B120680068C00501D5C4F8408003207A
:101B5000BDE8F88F2069DFF884A0B0F5804F0FD082
:101B60000620216800EAD51747F0F00008613346E7
:101B70005A460AF10601204600F0DAF858BB03E0A5
:101B8000E8B240F001001CE02168E8B20861334689
:101B90005A465146204600F0CBF8E0B9206841692A
:101BA00081690091016841F4807101605B46002207
:101BB00049462046009600F087F80028C1D147F03A
:101BC000F1002168086133465A465146204600F02C
:101BD000AFF80028BCD00120BAE7000002000100E5
:101BE000F8B50446C06A1E460D461746082807D0B9
:101BF000012805D010F5803F02D0206B122804D1B7
:101C00002068016841F480710160134600224FF0A2
:101C100001112046009600F057F840B12068006896
:101C2000C00502D54FF4007020640320F8BD206980
:101C3000B0F5804F0ED00620216800EAD51040F0A4
:101C4000F000086133463A460B49204600F070F830
:101C500078B902E005F0FE0000E0E8B22168086112
:101C6000054933463A46891F204600F061F80028AE
:101C7000DCD00120F8BD00000800010070B5164658
:101C80000D4604460DE02046FFF71DFF08B1012078
:101C900070BD681C05D0FEF7ADFE801BA84207D8BA
:101CA00035B120684069C0434007ECD4002070BDC6
:101CB000002044F8300F20216173A073216941F0A6
:101CC000200121612073E2E72DE9F0471E4690468E
:101CD0000D460446C1F30747DDF8209008E0701C6C
:101CE00006D0FEF787FEA0EB0900B0420FD876B110
:101CF0002068012F18D0806925EA00000004000C3C
:101D000014D000214145EAD00020BDE8F087002032
:101D100044F8300F20216173A073216941F0200144
:101D2000216120730120F0E74069E5E70121E9E73F
:101D30002DE9F0479A4691460E46044600254FF09D
:101D40002008C1F3074725E020684069C0434005EB
:101D500014D42068016841F40071016021686FF4B7
:101D600080604861256384F83D8084F83E50206C93
:101D700040F00400206484F83C501FE0B9F1FF3FBC
:101D800008D0FEF737FEA0EB0A0149450CD8B9F19F
:101D9000000F09D02068012F13D0806926EA0000C7
:101DA0000004000C0BD0CFE744F8305F84F80D80BE
:101DB000A573206940F02000206125730120BDE853
:101DC000F0874069EAE72DE9F041002590460E468C
:101DD0000446202717E04069C043C0060CD454F8DD
:101DE000301B6FF01000486144F810596777A577F1
:101DF000206A2062257717E0FEF7FCFDA0EB0800C3
:101E0000B04208D83EB120684169C9434906E2D4CE
:101E10000020BDE8F08144F8305F6773A573206946
:101E200040F02000206125730120F2E770B51646CE
:101E30000D4604460DE02046FFF745FE08B101209F
:101E400070BD681C05D0FEF7D5FD801BA84207D8E1
:101E500035B120684069C0430006ECD4002070BD55
:101E6000002044F8300F20216173A073216941F0F4
:101E7000200121612073E2E72DE9F8430446500672
:101E80008846DDE90867010E61761D462376052345
:101E900002224046FEF77AFE50B9617E6B460F2261
:101EA000404600F045FE18B99DF800003D2802D0DC
:101EB0000120BDE8F883617E6B462022404600F099
:101EC00037FE9DF8000047EA461120F0FE0001436E
:101ED000C8B240F080038DF80030617E2022404679
:101EE00000F05FFE617E6B462122404600F020FE3E
:101EF0009DF80000212220F060032B438DF8003074
:101F0000617E404600F04DFE617E6B4622224046D7
:101F100000F00EFE9DF80000222220F003038DF851
:101F20000030617E404600F03CFE617E6B4623221D
:101F3000404600F0FDFD9DF80000B10620F00C00C9
:101F400040EA11638DF80030617E2322404600F0A4
:101F500028FE617E6B462422404600F0E9FD9DF894
:101F60000000242220F0C0038DF80030617E40463E
:101F700000F017FE617E6B463022404600F0D8FD2F
:101F800000238DF80030617E3022404600F009FECB
:101F900000208EE7FEB5044606200D460090617EC7
:101FA00001AB2822284600F0DEFD08B10120FEBD6D
:101FB000BDF904002082BDF906606682BDF90850B3
:101FC000A582217E31B1202908D040291DD0602969
:101FD00019D11EE000F0BCFE104F02E000F0B8FE88
:101FE0000F4F394600F0F2FD2060304600F0B0FEA1
:101FF000394600F0EBFD6060284600F0A9FE394646
:1020000000F0E4FDA0600020FEBD00F0A1FE054F41
:10201000E7E700F09DFE044FE3E7000000D0D54560
:1020200000D0554500900E4500E0D5442DE9F04F15
:1020300085B000243448009401940294039481698B
:1020400041F010018161816901F010010491816901
:1020500041F020018161816901F0200104918169D1
:1020600041F004018161816901F0040104918169F9
:1020700041F0080181618069DFF8909000F008006C
:102080000490012203214846FEF7AEFCDFF880A051
:102090000022FF215046FEF7A7FC4FF4E057002234
:1020A00039464846FEF7A0FCDFF868B04FF44E789A
:1020B000002241465846FEF797FC022003250126E0
:1020C000CDE90240CDE9005669464846FEF788FB57
:1020D000FF20CDE9000669465046CDE90245FEF7EE
:1020E0007FFBCDE9007669464846CDE90245FEF71B
:1020F00077FBCDE9008669465846CDE90245FEF7F3
:102100006FFB05B0BDE8F08F0010024000100140E9
:1021100000080140000C0140FEE7FEE770477047F1
:10212000FEF7D0BF30B58FB028216846FEF76EF8B5
:1021300014210AA8FEF76AF801210804CDE900106D
:102140000024029402250491CDE907504FF4E010D9
:1021500009906846FFF73AF908B172B6FEE70F201A
:10216000CDE90A054FF48060CDE90C4002210AA8B0
:102170000E94FFF73FF8002801D072B6FEE70FB0CB
:1021800030BD704710B5406A0021C185C184FFF79A
:10219000C2FA10BD70B5446A2068406994F83D10D9
:1021A000C0F3C0100025212904D118B1E5842046D0
:1021B00000F049F82068406994F83E10C0F38010A0
:1021C000222904D118B1E585204600F024F8206CBE
:1021D00040F0100020642046FFF79DFA70BD10B556
:1021E0000146406A0968096889060CD40021C18447
:1021F00001684A6922F080024A610068C16841F0C2
:102200004001C16010BDFFF75BFC10BD10B5406A16
:10221000FFF757FC10BD0168CA6822F49072CA60CB
:1022200001684A6922F001024A61016B012904D167
:102230000168CA6822F01002CA60202180F83E10AE
:102240000021016370470168CA6822F0C002CA60B9
:10225000202180F83D10704708B590F83E102229E3
:1022600001D0022008BD82684FF480539A4201D108
:10227000016921B1816A9A421BD04AB10AE0026821
:10228000816A5268C2F308020A80816A891C08E0E8
:10229000026972B10268526802F07F020A70816AB4
:1022A000491C8162C18D491E0904090CC18503D0F6
:1022B00019E002685268F1E70168CA6822F020025A
:1022C000CA600168CA6822F48072CA6001684A69FB
:1022D00022F001024A61202180F83E10016B0129A1
:1022E00003D0FFF7ABFB002008BD002101630168AC
:1022F000CA6822F01002CA6001680A68D20602D5D4
:102300000A6849680091818DFFF704FAEBE7000045
:1023100070B5044600680169E26821F44051114338
:1023200001612169A0680843616908432168CA689E
:1023300041F20C639A430243CA6020684169A26972
:1023400021F44071114341611E492068884202D145
:10235000FEF7F6FF01E0FEF7E3FF00EBC00101EB43
:102360000012606864218000B2FBF0F3B3FBF1F36C
:102370006FF018067343B2FBF0F5B2FBF0F605EB15
:102380008305322303EB0515B5FBF1F5B6FBF1F63A
:1023900005F0F00505EB0615B2FBF0F6B2FBF0F028
:1023A000B0FBF1F06FF01802504306EB800003EB36
:1023B0000010B0FBF1F0216800F00F0028448860A5
:1023C00070BD0000003801400148FFF7A5B90000CA
:1023D000840000202DE9F05FFE4CFD4EA715FE4D58
:1023E0004FF400784FF480694FF4006A4FF4805B3B
:1023F00010287BD2DFE800F0080F5D697B91ACCC40
:10240000F9F7F6F5F4F3F2F1012211463046FEF742
:10241000EBFA002205E0002201213046FEF7E4FA43
:10242000012202213046FEF7DFFA00220421304665
:10243000FEF7DAFA002208213046FEF7D5FA00222C
:1024400010213046FEF7D0FA002220213046FEF758
:10245000CBFA002240213046FEF7C6FA0022802146
:102460003046FEF7C1FA002208212046FEF7BCFAEA
:10247000002210212046FEF7B7FA00222021204634
:10248000FEF7B2FA002239462046FEF7ADFA0022E6
:1024900041462046FEF7A8FA002249462846FEF7A4
:1024A000A3FA002251462846FEF79EFA002259461A
:1024B0007FE2002201213046FEF796FA0022022137
:1024C0003046FEF791FA0122B0E7002201213046A2
:1024D000FEF78AFA002202213046FEF785FA002232
:1024E00004213046FEF780FA0122A4E766E20022CA
:1024F00001213046FEF778FA002202213046FEF72D
:1025000073FA002204213046FEF76EFA00220821F9
:102510003046FEF769FA012292E700220121304697
:10252000FEF762FA002202213046FEF75DFA002231
:1025300004213046FEF758FA002208213046FEF703
:1025400053FA002210213046FEF74EFA01227CE7B2
:10255000002201213046FEF747FA002202213046D0
:10256000FEF742FA002204213046FEF73DFA00222F
:1025700008213046FEF738FA002210213046FEF7D7
:1025800033FA002220213046FEF72EFA012261E7BD
:10259000002201213046FEF727FA002202213046B0
:1025A000FEF722FA002204213046FEF71DFA00222F
:1025B00008213046FEF718FA002210213046FEF7B7
:1025C00013FA002220213046FEF70EFA00224021A5
:1025D0003046FEF709FA012241E79DE154E110E19E
:1025E000C9E08FE05AE02AE0FFE7002201213046EF
:1025F000FEF7FAF9002202213046FEF7F5F9002233
:1026000004213046FEF7F0F9002208213046FEF79B
:10261000EBF9002210213046FEF7E6F900222021D6
:102620003046FEF7E1F9002240213046FEF7DCF9A2
:10263000002280213046FEF7D7F9012214E700225C
:1026400001213046FEF7D0F9002202213046FEF784
:10265000CBF9002204213046FEF7C6F900220821FA
:102660003046FEF7C1F9002210213046FEF7BCF9D2
:10267000002220213046FEF7B7F9002240213046E3
:10268000FEF7B2F9002280213046FEF7ADF90022B4
:1026900008212046FEF7A8F90122EAE600220121DE
:1026A0003046FEF7A1F9002202213046FEF79CF9E0
:1026B000002204213046FEF797F900220821304617
:1026C000FEF792F9002210213046FEF78DF9002224
:1026D00020213046FEF788F9002240213046FEF7DF
:1026E00083F9002280213046FEF77EF9002208217E
:1026F0002046FEF779F9002210212046FEF774F9F2
:102700000122BBE6002201213046FEF76DF90022CE
:1027100002213046FEF768F9002204213046FEF718
:1027200063F9002208213046FEF75EF900221021ED
:102730003046FEF759F9002220213046FEF754F9C1
:10274000002240213046FEF74FF90022802130461A
:10275000FEF74AF9002208212046FEF745F900223B
:1027600010212046FEF740F9002220212046FEF7E6
:102770003BF9012287E6002201213046FEF734F9B9
:10278000002202213046FEF72FF9002204213046B4
:10279000FEF72AF9002208213046FEF725F900222B
:1027A00010213046FEF720F9002220213046FEF7A6
:1027B0001BF9002240213046FEF716F90022802145
:1027C0003046FEF711F900220821204606E00000FD
:1027D00000080140000C014000100140FEF704F920
:1027E000002210212046FEF7FFF80022202120467B
:1027F000FEF7FAF8002239462046FEF7F5F80122E6
:1028000046E6002201213046FEF7EEF800220221C2
:102810003046FEF7E9F8002204213046FEF7E4F8DE
:10282000002208213046FEF7DFF800221021304652
:10283000FEF7DAF8002220213046FEF7D5F8002214
:1028400040213046FEF7D0F8002280213046FEF7C6
:10285000CBF8002208212046FEF7C6F800221021FE
:102860002046FEF7C1F8002220212046FEF7BCF8E2
:10287000002239462046FEF7B7F80022414620469E
:10288000FEF7B2F8012208E6002201213046FEF7E9
:10289000ABF8002202213046FEF7A6F80022042100
:1028A0003046FEF7A1F8002208213046FEF79CF8DA
:1028B000002210213046FEF797F8002220213046F2
:1028C000FEF792F8002240213046FEF78DF80022F4
:1028D00080213046FEF788F8002208212046FEF7C6
:1028E00083F8002210212046FEF77EF800222021E6
:1028F0002046FEF779F8002239462046FEF774F8A4
:10290000002241462046FEF76FF80022494628463D
:10291000FEF76AF80122C5E5002201213046FEF7E4
:1029200063F8002202213046FEF75EF800220421FF
:102930003046FEF759F8002208213046FEF754F8D9
:10294000002210213046FEF74FF8002220213046A9
:10295000FEF74AF8002240213046FEF745F80022F3
:1029600080213046FEF740F8002208212046FEF77D
:102970003BF8002210212046FEF736F800222021E5
:102980002046FEF731F8002239462046FEF72CF8A3
:10299000002241462046FEF727F8002249462846F5
:1029A000FEF722F8002251462846FEF71DF80122C4
:1029B0007DE52846BDE8F05FFEF716B8002201214C
:1029C000F7E7FEE70907090E002804DB00F1E02025
:1029D00080F80014704700F00F0000F1E02080F84C
:1029E000141D7047BCB0FEF775FBFFF79BFBFFF7AC
:1029F0001DFB49484749002501604849C0E90115C8
:102A00004FF48041C0E9035145618561C5610562AC
:102A1000FDF7F8FF08B172B6FEE74148416941F0A1
:102A2000010141614069002200F00100009011465F
:102A30000E20FEF7ADFB0E20FEF79CFB3648394911
:102A4000543001604FF47A31C0E901150C21C560A2
:102A5000C0E904518561C561FEF764FF08B172B633
:102A6000FEE700241C26DFF8C08003272046FFF77E
:102A7000B1FC0A20FDF7A2FECDE9007600231E225C
:102A8000254934A8FFF7F8F920B10022012140467A
:102A9000FDF7AAFF641CE4B20F2CE7D9234F02AE66
:102AA00002214046FDF798FFFA20FDF787FE00243B
:102AB0002046FFF78FFC184934A8FFF76BFA20B1C6
:102AC000002201214046FDF78FFF04EB8400C0B2D5
:102AD00026F8107006EB40004480BDF8E0108180BD
:102AE000BDF8E210C180BDF8E4100181641CADF8AE
:102AF000E050ADF8E450E4B2ADF8E25034953595CD
:102B000036950F2CD4D90448A02202A95430FEF7E0
:102B100097FFC5E70054004030000020A086010068
:102B2000001002400038014000100140AAAAFFFF37
:102B3000FFB581B01D460A240E460746012303AAAD
:102B40000094FEF7FBF940B901232A463146384686
:102B50000094FEF7D1F8002803D03846FDF750FF67
:102B6000012005B0F0BD2DE9FF4182B01D460A24C9
:102B70000F4680460C9E012304AA0094FEF7DEF95E
:102B800040B933462A46394640460094FEF7B4F829
:102B9000002803D04046FDF733FF012006B0BDE812
:102BA000F0811CB504468DF804200A208DF805300C
:102BB0000090022301AA2046FEF7C0F9002803D0A6
:102BC0002046FDF71DFF01201CBD00004FF47F0CC7
:102BD0001CEAD0121EBF1CEAD11392EA0C0F93EA32
:102BE0000C0F00F0858090EA010F48BF42F480721C
:102BF00040F4000C41F400002CF07F4120F07F40B5
:102C000000B58142A2EB03020FF2081CACEB504E60
:102C1000C0F100009EF800E04FEA4E0E00FB0EFCF3
:102C200038BF49004FEA2C1C02F5FA020CFB0EF3E8
:102C30004FEACE1E4FEA112C4FEAC1210EEB635E24
:102C400042EB22420EFB0CFC4FEA1C5300FB03112B
:102C50004FEA112C4FEA01310EFB0CFC4FEADC4C21
:102C600000FB0C11C14228BF09184CEB03335DF87F
:102C700004EB10EB410143EBC250B2F57C0F38BFBF
:102C8000704729D512F0F00F1CBF00F1C04000F0D2
:102C900000407047008182838485868788898B8C79
:102CA0008D8E8F919293959697999A9C9D9FA0A2B5
:102CB000A3A5A7A8AAACAEB0B2B3B5B7B9BCBEC005
:102CC000C2C5C7C9CCCED1D4D7D9DCDFE2E6E9ECA6
:102CD000F0F3F7FAFE0000004FEA400C0CF1807CA4
:102CE000BCF17E4F28BF7047B0F1C04000F08EB8F5
:102CF00090EA010F0CEAD11348BF42F4807262459A
:102D000038BF634507D213F47F0F16D080EA010065
:102D100000F00040704710B500F032F8097EFC3E2C
:102D200000F005B880EA010000F00040704780EA3A
:102D3000010000F0004000F069B812F47F0F04BFFA
:102D40000248704780EA010000F060B80000C07FD0
:102D500010F0004148BF4042B0FA80F310FA03F28D
:102D6000C3F19D030BD051EAC35101EB122053066E
:102D700038BF704700F1010008BF20F00100704724
:102D80000EF1020E2EF0030E5EF8044B244204D422
:102D90004FEA4102B2F17F4F11D84FEA4003B3F13D
:102DA0007F4F0CD80ED14FEAD07CB2F17F4F0CEBA5
:102DB0004C0C0CF1020C08BF4CEBD17C04E04FF042
:102DC000080C01E04FEAD17C0CEB4C0324FA03F42D
:102DD00004F00704B4F1040C06D20EEB840CBDE839
:102DE00010404CF0010C6047DFE80CF007080202CD
:102DF0004FF00040A0F5800010BD0846420018BF0B
:102E0000D2F1807288BF00F0004010BDFF2141EA7E
:102E1000D050C00570470000000000000000010213
:102E20000304060708090000000001020304000073
:102E3000502E000800000020100000006C01000867
:102E4000602E0008100000206007000088010008C4
:102E50000100000010000000000000000024F40049
:0400000508000131BD
:00000001FF
